{
  "_format": "hh3-artifact-1",
  "contractName": "Election",
  "sourceName": "contracts/Election.sol",
  "abi": [
    {
      "inputs": [
        {
          "internalType": "address",
          "name": "_verifierAddress",
          "type": "address"
        },
        {
          "internalType": "uint256",
          "name": "_electionId",
          "type": "uint256"
        },
        {
          "internalType": "uint256",
          "name": "_merkleRoot",
          "type": "uint256"
        }
      ],
      "stateMutability": "nonpayable",
      "type": "constructor"
    },
    {
      "anonymous": false,
      "inputs": [
        {
          "indexed": true,
          "internalType": "uint256",
          "name": "candidateId",
          "type": "uint256"
        },
        {
          "indexed": false,
          "internalType": "uint256",
          "name": "nullifierHash",
          "type": "uint256"
        }
      ],
      "name": "VoteCast",
      "type": "event"
    },
    {
      "inputs": [],
      "name": "CANDIDATE_COUNT",
      "outputs": [
        {
          "internalType": "uint256",
          "name": "",
          "type": "uint256"
        }
      ],
      "stateMutability": "view",
      "type": "function"
    },
    {
      "inputs": [],
      "name": "MAX_CANDIDATE_ID",
      "outputs": [
        {
          "internalType": "uint256",
          "name": "",
          "type": "uint256"
        }
      ],
      "stateMutability": "view",
      "type": "function"
    },
    {
      "inputs": [],
      "name": "MIN_CANDIDATE_ID",
      "outputs": [
        {
          "internalType": "uint256",
          "name": "",
          "type": "uint256"
        }
      ],
      "stateMutability": "view",
      "type": "function"
    },
    {
      "inputs": [],
      "name": "admin",
      "outputs": [
        {
          "internalType": "address",
          "name": "",
          "type": "address"
        }
      ],
      "stateMutability": "view",
      "type": "function"
    },
    {
      "inputs": [
        {
          "internalType": "uint256[2]",
          "name": "a",
          "type": "uint256[2]"
        },
        {
          "internalType": "uint256[2][2]",
          "name": "b",
          "type": "uint256[2][2]"
        },
        {
          "internalType": "uint256[2]",
          "name": "c",
          "type": "uint256[2]"
        },
        {
          "internalType": "uint256[4]",
          "name": "input",
          "type": "uint256[4]"
        }
      ],
      "name": "castVote",
      "outputs": [],
      "stateMutability": "nonpayable",
      "type": "function"
    },
    {
      "inputs": [],
      "name": "electionId",
      "outputs": [
        {
          "internalType": "uint256",
          "name": "",
          "type": "uint256"
        }
      ],
      "stateMutability": "view",
      "type": "function"
    },
    {
      "inputs": [
        {
          "internalType": "uint256",
          "name": "candidateId",
          "type": "uint256"
        }
      ],
      "name": "getVotes",
      "outputs": [
        {
          "internalType": "uint256",
          "name": "",
          "type": "uint256"
        }
      ],
      "stateMutability": "view",
      "type": "function"
    },
    {
      "inputs": [],
      "name": "merkleRoot",
      "outputs": [
        {
          "internalType": "uint256",
          "name": "",
          "type": "uint256"
        }
      ],
      "stateMutability": "view",
      "type": "function"
    },
    {
      "inputs": [
        {
          "internalType": "uint256",
          "name": "",
          "type": "uint256"
        }
      ],
      "name": "usedNullifiers",
      "outputs": [
        {
          "internalType": "bool",
          "name": "",
          "type": "bool"
        }
      ],
      "stateMutability": "view",
      "type": "function"
    },
    {
      "inputs": [],
      "name": "verifier",
      "outputs": [
        {
          "internalType": "contract Groth16Verifier",
          "name": "",
          "type": "address"
        }
      ],
      "stateMutability": "view",
      "type": "function"
    },
    {
      "inputs": [
        {
          "internalType": "uint256",
          "name": "",
          "type": "uint256"
        }
      ],
      "name": "voteCounts",
      "outputs": [
        {
          "internalType": "uint256",
          "name": "",
          "type": "uint256"
        }
      ],
      "stateMutability": "view",
      "type": "function"
    }
  ],
  "bytecode": "0x60c060405234801561000f575f5ffd5b5060405161126138038061126183398181016040528101906100319190610159565b335f5f6101000a81548173ffffffffffffffffffffffffffffffffffffffff021916908373ffffffffffffffffffffffffffffffffffffffff1602179055508260015f6101000a81548173ffffffffffffffffffffffffffffffffffffffff021916908373ffffffffffffffffffffffffffffffffffffffff16021790555081608081815250508060a081815250505050506101a9565b5f5ffd5b5f73ffffffffffffffffffffffffffffffffffffffff82169050919050565b5f6100f5826100cc565b9050919050565b610105816100eb565b811461010f575f5ffd5b50565b5f81519050610120816100fc565b92915050565b5f819050919050565b61013881610126565b8114610142575f5ffd5b50565b5f815190506101538161012f565b92915050565b5f5f5f606084860312156101705761016f6100c8565b5b5f61017d86828701610112565b935050602061018e86828701610145565b925050604061019f86828701610145565b9150509250925092565b60805160a0516110896101d85f395f818161032001526105c701525f818161022b01526102be01526110895ff3fe608060405234801561000f575f5ffd5b50600436106100a7575f3560e01c80633ca184d51161006f5780633ca184d51461015157806363fc45fa1461016f578063aad240611461018d578063d372b479146101bd578063f851a440146101db578063ff981099146101f9576100a7565b8063051364d4146100ab57806323312906146100c95780632b7ac3f3146100e55780632eb4a7ab146101035780633c3a220d14610121575b5f5ffd5b6100b3610229565b6040516100c09190610680565b60405180910390f35b6100e360048036038101906100de919061096a565b61024d565b005b6100ed6105a0565b6040516100fa9190610a4a565b60405180910390f35b61010b6105c5565b6040516101189190610680565b60405180910390f35b61013b60048036038101906101369190610a63565b6105e9565b6040516101489190610680565b60405180910390f35b6101596105fe565b6040516101669190610680565b60405180910390f35b610177610603565b6040516101849190610680565b60405180910390f35b6101a760048036038101906101a29190610a63565b610608565b6040516101b49190610aa8565b60405180910390f35b6101c5610625565b6040516101d29190610680565b60405180910390f35b6101e361062a565b6040516101f09190610ae1565b60405180910390f35b610213600480360381019061020e9190610a63565b61064e565b6040516102209190610680565b60405180910390f35b7f000000000000000000000000000000000000000000000000000000000000000081565b5f815f6004811061026157610260610afa565b5b602002015190505f8260016004811061027d5761027c610afa565b5b602002015190505f8360026004811061029957610298610afa565b5b602002015190505f846003600481106102b5576102b4610afa565b5b602002015190507f0000000000000000000000000000000000000000000000000000000000000000821461031e576040517f08c379a000000000000000000000000000000000000000000000000000000000815260040161031590610b81565b60405180910390fd5b7f00000000000000000000000000000000000000000000000000000000000000008114610380576040517f08c379a000000000000000000000000000000000000000000000000000000000815260040161037790610be9565b60405180910390fd5b60018310158015610392575060048311155b6103d1576040517f08c379a00000000000000000000000000000000000000000000000000000000081526004016103c890610c51565b60405180910390fd5b60025f8581526020019081526020015f205f9054906101000a900460ff161561042f576040517f08c379a000000000000000000000000000000000000000000000000000000000815260040161042690610cb9565b60405180910390fd5b60015f9054906101000a900473ffffffffffffffffffffffffffffffffffffffff1673ffffffffffffffffffffffffffffffffffffffff16635fe8c13b898989896040518563ffffffff1660e01b815260040161048f9493929190610ef1565b602060405180830381865afa1580156104aa573d5f5f3e3d5ffd5b505050506040513d601f19601f820116820180604052508101906104ce9190610f60565b61050d576040517f08c379a000000000000000000000000000000000000000000000000000000000815260040161050490610fd5565b60405180910390fd5b600160025f8681526020019081526020015f205f6101000a81548160ff021916908315150217905550600160035f8581526020019081526020015f205f8282546105579190611020565b92505081905550827fc31875ef3ed5138b71a0c1da7e494bc4d2ba4f567084ea481ec9c45f3a93948b8560405161058e9190610680565b60405180910390a25050505050505050565b60015f9054906101000a900473ffffffffffffffffffffffffffffffffffffffff1681565b7f000000000000000000000000000000000000000000000000000000000000000081565b6003602052805f5260405f205f915090505481565b600481565b600481565b6002602052805f5260405f205f915054906101000a900460ff1681565b600181565b5f5f9054906101000a900473ffffffffffffffffffffffffffffffffffffffff1681565b5f60035f8381526020019081526020015f20549050919050565b5f819050919050565b61067a81610668565b82525050565b5f6020820190506106935f830184610671565b92915050565b5f604051905090565b5f5ffd5b5f5ffd5b5f601f19601f8301169050919050565b7f4e487b71000000000000000000000000000000000000000000000000000000005f52604160045260245ffd5b6106f0826106aa565b810181811067ffffffffffffffff8211171561070f5761070e6106ba565b5b80604052505050565b5f610721610699565b905061072d82826106e7565b919050565b5f67ffffffffffffffff82111561074c5761074b6106ba565b5b602082029050919050565b5f5ffd5b61076481610668565b811461076e575f5ffd5b50565b5f8135905061077f8161075b565b92915050565b5f61079761079284610732565b610718565b905080602084028301858111156107b1576107b0610757565b5b835b818110156107da57806107c68882610771565b8452602084019350506020810190506107b3565b5050509392505050565b5f82601f8301126107f8576107f76106a6565b5b6002610805848285610785565b91505092915050565b5f67ffffffffffffffff821115610828576108276106ba565b5b602082029050919050565b5f6108456108408461080e565b610718565b9050806040840283018581111561085f5761085e610757565b5b835b81811015610888578061087488826107e4565b845260208401935050604081019050610861565b5050509392505050565b5f82601f8301126108a6576108a56106a6565b5b60026108b3848285610833565b91505092915050565b5f67ffffffffffffffff8211156108d6576108d56106ba565b5b602082029050919050565b5f6108f36108ee846108bc565b610718565b9050806020840283018581111561090d5761090c610757565b5b835b8181101561093657806109228882610771565b84526020840193505060208101905061090f565b5050509392505050565b5f82601f830112610954576109536106a6565b5b60046109618482856108e1565b91505092915050565b5f5f5f5f6101808587031215610983576109826106a2565b5b5f610990878288016107e4565b94505060406109a187828801610892565b93505060c06109b2878288016107e4565b9250506101006109c487828801610940565b91505092959194509250565b5f73ffffffffffffffffffffffffffffffffffffffff82169050919050565b5f819050919050565b5f610a12610a0d610a08846109d0565b6109ef565b6109d0565b9050919050565b5f610a23826109f8565b9050919050565b5f610a3482610a19565b9050919050565b610a4481610a2a565b82525050565b5f602082019050610a5d5f830184610a3b565b92915050565b5f60208284031215610a7857610a776106a2565b5b5f610a8584828501610771565b91505092915050565b5f8115159050919050565b610aa281610a8e565b82525050565b5f602082019050610abb5f830184610a99565b92915050565b5f610acb826109d0565b9050919050565b610adb81610ac1565b82525050565b5f602082019050610af45f830184610ad2565b92915050565b7f4e487b71000000000000000000000000000000000000000000000000000000005f52603260045260245ffd5b5f82825260208201905092915050565b7f496e76616c696420656c656374696f6e000000000000000000000000000000005f82015250565b5f610b6b601083610b27565b9150610b7682610b37565b602082019050919050565b5f6020820190508181035f830152610b9881610b5f565b9050919050565b7f496e76616c6964204d65726b6c6520726f6f74000000000000000000000000005f82015250565b5f610bd3601383610b27565b9150610bde82610b9f565b602082019050919050565b5f6020820190508181035f830152610c0081610bc7565b9050919050565b7f496e76616c69642063616e6469646174650000000000000000000000000000005f82015250565b5f610c3b601183610b27565b9150610c4682610c07565b602082019050919050565b5f6020820190508181035f830152610c6881610c2f565b9050919050565b7f4c6f693a20437520747269206e617920646120626f20706869657521000000005f82015250565b5f610ca3601c83610b27565b9150610cae82610c6f565b602082019050919050565b5f6020820190508181035f830152610cd081610c97565b9050919050565b5f60029050919050565b5f81905092915050565b5f819050919050565b610cfd81610668565b82525050565b5f610d0e8383610cf4565b60208301905092915050565b5f602082019050919050565b610d2f81610cd7565b610d398184610ce1565b9250610d4482610ceb565b805f5b83811015610d74578151610d5b8782610d03565b9650610d6683610d1a565b925050600181019050610d47565b505050505050565b5f60029050919050565b5f81905092915050565b5f819050919050565b5f81905092915050565b610dac81610cd7565b610db68184610d99565b9250610dc182610ceb565b805f5b83811015610df1578151610dd88782610d03565b9650610de383610d1a565b925050600181019050610dc4565b505050505050565b5f610e048383610da3565b60408301905092915050565b5f602082019050919050565b610e2581610d7c565b610e2f8184610d86565b9250610e3a82610d90565b805f5b83811015610e6a578151610e518782610df9565b9650610e5c83610e10565b925050600181019050610e3d565b505050505050565b5f60049050919050565b5f81905092915050565b5f819050919050565b5f602082019050919050565b610ea481610e72565b610eae8184610e7c565b9250610eb982610e86565b805f5b83811015610ee9578151610ed08782610d03565b9650610edb83610e8f565b925050600181019050610ebc565b505050505050565b5f61018082019050610f055f830187610d26565b610f126040830186610e1c565b610f1f60c0830185610d26565b610f2d610100830184610e9b565b95945050505050565b610f3f81610a8e565b8114610f49575f5ffd5b50565b5f81519050610f5a81610f36565b92915050565b5f60208284031215610f7557610f746106a2565b5b5f610f8284828501610f4c565b91505092915050565b7f4c6f693a205a4b2050726f6f66206b686f6e6720686f70206c650000000000005f82015250565b5f610fbf601a83610b27565b9150610fca82610f8b565b602082019050919050565b5f6020820190508181035f830152610fec81610fb3565b9050919050565b7f4e487b71000000000000000000000000000000000000000000000000000000005f52601160045260245ffd5b5f61102a82610668565b915061103583610668565b925082820190508082111561104d5761104c610ff3565b5b9291505056fea2646970667358221220ef0d8dad98fdfb1e1e8e3928be0372ea3afc83bc2da71b98d5fc1105dc3fc9ab64736f6c634300081c0033",
  "linkReferences": {},
  "deployedLinkReferences": {},
  "immutableReferences": {
    "18": [
      {
        "length": 32,
        "start": 555
      },
      {
        "length": 32,
        "start": 702
      }
    ],
    "20": [
      {
        "length": 32,
        "start": 800
      },
      {
        "length": 32,
        "start": 1479
      }
    ]
  },
  "inputSourceName": "project/contracts/Election.sol",
  "buildInfoId": "solc-0_8_28-97388d4aa8f784523c449d260f393ca4b4b38ef5"
}