{
  "_format": "hh3-artifact-1",
  "contractName": "Election",
  "sourceName": "contracts/Election.sol",
  "abi": [
    {
      "inputs": [
        {
          "internalType": "address",
          "name": "_verifierAddress",
          "type": "address"
        },
        {
          "internalType": "uint256",
          "name": "_electionId",
          "type": "uint256"
        }
      ],
      "stateMutability": "nonpayable",
      "type": "constructor"
    },
    {
      "anonymous": false,
      "inputs": [
        {
          "indexed": true,
          "internalType": "uint256",
          "name": "candidateId",
          "type": "uint256"
        },
        {
          "indexed": false,
          "internalType": "uint256",
          "name": "nullifierHash",
          "type": "uint256"
        }
      ],
      "name": "VoteCast",
      "type": "event"
    },
    {
      "inputs": [],
      "name": "CANDIDATE_COUNT",
      "outputs": [
        {
          "internalType": "uint256",
          "name": "",
          "type": "uint256"
        }
      ],
      "stateMutability": "view",
      "type": "function"
    },
    {
      "inputs": [],
      "name": "MAX_CANDIDATE_ID",
      "outputs": [
        {
          "internalType": "uint256",
          "name": "",
          "type": "uint256"
        }
      ],
      "stateMutability": "view",
      "type": "function"
    },
    {
      "inputs": [],
      "name": "MIN_CANDIDATE_ID",
      "outputs": [
        {
          "internalType": "uint256",
          "name": "",
          "type": "uint256"
        }
      ],
      "stateMutability": "view",
      "type": "function"
    },
    {
      "inputs": [],
      "name": "admin",
      "outputs": [
        {
          "internalType": "address",
          "name": "",
          "type": "address"
        }
      ],
      "stateMutability": "view",
      "type": "function"
    },
    {
      "inputs": [
        {
          "internalType": "uint256[2]",
          "name": "a",
          "type": "uint256[2]"
        },
        {
          "internalType": "uint256[2][2]",
          "name": "b",
          "type": "uint256[2][2]"
        },
        {
          "internalType": "uint256[2]",
          "name": "c",
          "type": "uint256[2]"
        },
        {
          "internalType": "uint256[3]",
          "name": "input",
          "type": "uint256[3]"
        }
      ],
      "name": "castVote",
      "outputs": [],
      "stateMutability": "nonpayable",
      "type": "function"
    },
    {
      "inputs": [],
      "name": "electionId",
      "outputs": [
        {
          "internalType": "uint256",
          "name": "",
          "type": "uint256"
        }
      ],
      "stateMutability": "view",
      "type": "function"
    },
    {
      "inputs": [
        {
          "internalType": "uint256",
          "name": "candidateId",
          "type": "uint256"
        }
      ],
      "name": "getVotes",
      "outputs": [
        {
          "internalType": "uint256",
          "name": "",
          "type": "uint256"
        }
      ],
      "stateMutability": "view",
      "type": "function"
    },
    {
      "inputs": [
        {
          "internalType": "uint256",
          "name": "",
          "type": "uint256"
        }
      ],
      "name": "usedNullifiers",
      "outputs": [
        {
          "internalType": "bool",
          "name": "",
          "type": "bool"
        }
      ],
      "stateMutability": "view",
      "type": "function"
    },
    {
      "inputs": [],
      "name": "verifier",
      "outputs": [
        {
          "internalType": "contract Groth16Verifier",
          "name": "",
          "type": "address"
        }
      ],
      "stateMutability": "view",
      "type": "function"
    },
    {
      "inputs": [
        {
          "internalType": "uint256",
          "name": "",
          "type": "uint256"
        }
      ],
      "name": "voteCounts",
      "outputs": [
        {
          "internalType": "uint256",
          "name": "",
          "type": "uint256"
        }
      ],
      "stateMutability": "view",
      "type": "function"
    }
  ],
  "bytecode": "0x60a060405234801561000f575f5ffd5b5060405161110238038061110283398181016040528101906100319190610150565b335f5f6101000a81548173ffffffffffffffffffffffffffffffffffffffff021916908373ffffffffffffffffffffffffffffffffffffffff1602179055508160015f6101000a81548173ffffffffffffffffffffffffffffffffffffffff021916908373ffffffffffffffffffffffffffffffffffffffff1602179055508060808181525050505061018e565b5f5ffd5b5f73ffffffffffffffffffffffffffffffffffffffff82169050919050565b5f6100ec826100c3565b9050919050565b6100fc816100e2565b8114610106575f5ffd5b50565b5f81519050610117816100f3565b92915050565b5f819050919050565b61012f8161011d565b8114610139575f5ffd5b50565b5f8151905061014a81610126565b92915050565b5f5f60408385031215610166576101656100bf565b5b5f61017385828601610109565b92505060206101848582860161013c565b9150509250929050565b608051610f556101ad5f395f818161020201526102da0152610f555ff3fe608060405234801561000f575f5ffd5b506004361061009c575f3560e01c8063aad2406111610064578063aad2406114610148578063c11d709f14610178578063d372b47914610194578063f851a440146101b2578063ff981099146101d05761009c565b8063051364d4146100a05780632b7ac3f3146100be5780633c3a220d146100dc5780633ca184d51461010c57806363fc45fa1461012a575b5f5ffd5b6100a8610200565b6040516100b591906105b4565b60405180910390f35b6100c6610224565b6040516100d39190610647565b60405180910390f35b6100f660048036038101906100f19190610697565b610249565b60405161010391906105b4565b60405180910390f35b61011461025e565b60405161012191906105b4565b60405180910390f35b610132610263565b60405161013f91906105b4565b60405180910390f35b610162600480360381019061015d9190610697565b610268565b60405161016f91906106dc565b60405180910390f35b610192600480360381019061018d919061098f565b610285565b005b61019c610559565b6040516101a991906105b4565b60405180910390f35b6101ba61055e565b6040516101c79190610a15565b60405180910390f35b6101ea60048036038101906101e59190610697565b610582565b6040516101f791906105b4565b60405180910390f35b7f000000000000000000000000000000000000000000000000000000000000000081565b60015f9054906101000a900473ffffffffffffffffffffffffffffffffffffffff1681565b6003602052805f5260405f205f915090505481565b600481565b600481565b6002602052805f5260405f205f915054906101000a900460ff1681565b5f815f6003811061029957610298610a2e565b5b602002015190505f826001600381106102b5576102b4610a2e565b5b602002015190505f836002600381106102d1576102d0610a2e565b5b602002015190507f0000000000000000000000000000000000000000000000000000000000000000811461033a576040517f08c379a000000000000000000000000000000000000000000000000000000000815260040161033190610ab5565b60405180910390fd5b6001821015801561034c575060048211155b61038b576040517f08c379a000000000000000000000000000000000000000000000000000000000815260040161038290610b1d565b60405180910390fd5b60025f8481526020019081526020015f205f9054906101000a900460ff16156103e9576040517f08c379a00000000000000000000000000000000000000000000000000000000081526004016103e090610b85565b60405180910390fd5b60015f9054906101000a900473ffffffffffffffffffffffffffffffffffffffff1673ffffffffffffffffffffffffffffffffffffffff166311479fea888888886040518563ffffffff1660e01b81526004016104499493929190610dbd565b602060405180830381865afa158015610464573d5f5f3e3d5ffd5b505050506040513d601f19601f820116820180604052508101906104889190610e2c565b6104c7576040517f08c379a00000000000000000000000000000000000000000000000000000000081526004016104be90610ea1565b60405180910390fd5b600160025f8581526020019081526020015f205f6101000a81548160ff021916908315150217905550600160035f8481526020019081526020015f205f8282546105119190610eec565b92505081905550817fc31875ef3ed5138b71a0c1da7e494bc4d2ba4f567084ea481ec9c45f3a93948b8460405161054891906105b4565b60405180910390a250505050505050565b600181565b5f5f9054906101000a900473ffffffffffffffffffffffffffffffffffffffff1681565b5f60035f8381526020019081526020015f20549050919050565b5f819050919050565b6105ae8161059c565b82525050565b5f6020820190506105c75f8301846105a5565b92915050565b5f73ffffffffffffffffffffffffffffffffffffffff82169050919050565b5f819050919050565b5f61060f61060a610605846105cd565b6105ec565b6105cd565b9050919050565b5f610620826105f5565b9050919050565b5f61063182610616565b9050919050565b61064181610627565b82525050565b5f60208201905061065a5f830184610638565b92915050565b5f604051905090565b5f5ffd5b6106768161059c565b8114610680575f5ffd5b50565b5f813590506106918161066d565b92915050565b5f602082840312156106ac576106ab610669565b5b5f6106b984828501610683565b91505092915050565b5f8115159050919050565b6106d6816106c2565b82525050565b5f6020820190506106ef5f8301846106cd565b92915050565b5f5ffd5b5f601f19601f8301169050919050565b7f4e487b71000000000000000000000000000000000000000000000000000000005f52604160045260245ffd5b61073f826106f9565b810181811067ffffffffffffffff8211171561075e5761075d610709565b5b80604052505050565b5f610770610660565b905061077c8282610736565b919050565b5f67ffffffffffffffff82111561079b5761079a610709565b5b602082029050919050565b5f5ffd5b5f6107bc6107b784610781565b610767565b905080602084028301858111156107d6576107d56107a6565b5b835b818110156107ff57806107eb8882610683565b8452602084019350506020810190506107d8565b5050509392505050565b5f82601f83011261081d5761081c6106f5565b5b600261082a8482856107aa565b91505092915050565b5f67ffffffffffffffff82111561084d5761084c610709565b5b602082029050919050565b5f61086a61086584610833565b610767565b90508060408402830185811115610884576108836107a6565b5b835b818110156108ad57806108998882610809565b845260208401935050604081019050610886565b5050509392505050565b5f82601f8301126108cb576108ca6106f5565b5b60026108d8848285610858565b91505092915050565b5f67ffffffffffffffff8211156108fb576108fa610709565b5b602082029050919050565b5f610918610913846108e1565b610767565b90508060208402830185811115610932576109316107a6565b5b835b8181101561095b57806109478882610683565b845260208401935050602081019050610934565b5050509392505050565b5f82601f830112610979576109786106f5565b5b6003610986848285610906565b91505092915050565b5f5f5f5f61016085870312156109a8576109a7610669565b5b5f6109b587828801610809565b94505060406109c6878288016108b7565b93505060c06109d787828801610809565b9250506101006109e987828801610965565b91505092959194509250565b5f6109ff826105cd565b9050919050565b610a0f816109f5565b82525050565b5f602082019050610a285f830184610a06565b92915050565b7f4e487b71000000000000000000000000000000000000000000000000000000005f52603260045260245ffd5b5f82825260208201905092915050565b7f496e76616c696420656c656374696f6e000000000000000000000000000000005f82015250565b5f610a9f601083610a5b565b9150610aaa82610a6b565b602082019050919050565b5f6020820190508181035f830152610acc81610a93565b9050919050565b7f496e76616c69642063616e6469646174650000000000000000000000000000005f82015250565b5f610b07601183610a5b565b9150610b1282610ad3565b602082019050919050565b5f6020820190508181035f830152610b3481610afb565b9050919050565b7f4c6f693a20437520747269206e617920646120626f20706869657521000000005f82015250565b5f610b6f601c83610a5b565b9150610b7a82610b3b565b602082019050919050565b5f6020820190508181035f830152610b9c81610b63565b9050919050565b5f60029050919050565b5f81905092915050565b5f819050919050565b610bc98161059c565b82525050565b5f610bda8383610bc0565b60208301905092915050565b5f602082019050919050565b610bfb81610ba3565b610c058184610bad565b9250610c1082610bb7565b805f5b83811015610c40578151610c278782610bcf565b9650610c3283610be6565b925050600181019050610c13565b505050505050565b5f60029050919050565b5f81905092915050565b5f819050919050565b5f81905092915050565b610c7881610ba3565b610c828184610c65565b9250610c8d82610bb7565b805f5b83811015610cbd578151610ca48782610bcf565b9650610caf83610be6565b925050600181019050610c90565b505050505050565b5f610cd08383610c6f565b60408301905092915050565b5f602082019050919050565b610cf181610c48565b610cfb8184610c52565b9250610d0682610c5c565b805f5b83811015610d36578151610d1d8782610cc5565b9650610d2883610cdc565b925050600181019050610d09565b505050505050565b5f60039050919050565b5f81905092915050565b5f819050919050565b5f602082019050919050565b610d7081610d3e565b610d7a8184610d48565b9250610d8582610d52565b805f5b83811015610db5578151610d9c8782610bcf565b9650610da783610d5b565b925050600181019050610d88565b505050505050565b5f61016082019050610dd15f830187610bf2565b610dde6040830186610ce8565b610deb60c0830185610bf2565b610df9610100830184610d67565b95945050505050565b610e0b816106c2565b8114610e15575f5ffd5b50565b5f81519050610e2681610e02565b92915050565b5f60208284031215610e4157610e40610669565b5b5f610e4e84828501610e18565b91505092915050565b7f4c6f693a205a4b2050726f6f66206b686f6e6720686f70206c650000000000005f82015250565b5f610e8b601a83610a5b565b9150610e9682610e57565b602082019050919050565b5f6020820190508181035f830152610eb881610e7f565b9050919050565b7f4e487b71000000000000000000000000000000000000000000000000000000005f52601160045260245ffd5b5f610ef68261059c565b9150610f018361059c565b9250828201905080821115610f1957610f18610ebf565b5b9291505056fea2646970667358221220272da0932a83a55a2f3d96562d21db1218f5e4702766d16198c4c2b48fbe681a64736f6c634300081c0033",
  "linkReferences": {},
  "deployedLinkReferences": {},
  "immutableReferences": {
    "18": [
      {
        "length": 32,
        "start": 514
      },
      {
        "length": 32,
        "start": 730
      }
    ]
  },
  "inputSourceName": "project/contracts/Election.sol",
  "buildInfoId": "solc-0_8_28-2708dcf955e5bcd1532ca358509a67973ea9fcc5"
}