{
  "_format": "hh3-artifact-1",
  "contractName": "Election",
  "sourceName": "contracts/Election.sol",
  "abi": [
    {
      "inputs": [
        {
          "internalType": "address",
          "name": "_verifierAddress",
          "type": "address"
        }
      ],
      "stateMutability": "nonpayable",
      "type": "constructor"
    },
    {
      "anonymous": false,
      "inputs": [
        {
          "indexed": true,
          "internalType": "uint256",
          "name": "candidateId",
          "type": "uint256"
        },
        {
          "indexed": false,
          "internalType": "uint256",
          "name": "nullifierHash",
          "type": "uint256"
        }
      ],
      "name": "VoteCast",
      "type": "event"
    },
    {
      "inputs": [],
      "name": "admin",
      "outputs": [
        {
          "internalType": "address",
          "name": "",
          "type": "address"
        }
      ],
      "stateMutability": "view",
      "type": "function"
    },
    {
      "inputs": [
        {
          "internalType": "uint256[2]",
          "name": "a",
          "type": "uint256[2]"
        },
        {
          "internalType": "uint256[2][2]",
          "name": "b",
          "type": "uint256[2][2]"
        },
        {
          "internalType": "uint256[2]",
          "name": "c",
          "type": "uint256[2]"
        },
        {
          "internalType": "uint256[2]",
          "name": "input",
          "type": "uint256[2]"
        }
      ],
      "name": "castVote",
      "outputs": [],
      "stateMutability": "nonpayable",
      "type": "function"
    },
    {
      "inputs": [
        {
          "internalType": "uint256",
          "name": "candidateId",
          "type": "uint256"
        }
      ],
      "name": "getVotes",
      "outputs": [
        {
          "internalType": "uint256",
          "name": "",
          "type": "uint256"
        }
      ],
      "stateMutability": "view",
      "type": "function"
    },
    {
      "inputs": [
        {
          "internalType": "uint256",
          "name": "",
          "type": "uint256"
        }
      ],
      "name": "usedNullifiers",
      "outputs": [
        {
          "internalType": "bool",
          "name": "",
          "type": "bool"
        }
      ],
      "stateMutability": "view",
      "type": "function"
    },
    {
      "inputs": [],
      "name": "verifier",
      "outputs": [
        {
          "internalType": "contract Groth16Verifier",
          "name": "",
          "type": "address"
        }
      ],
      "stateMutability": "view",
      "type": "function"
    },
    {
      "inputs": [
        {
          "internalType": "uint256",
          "name": "",
          "type": "uint256"
        }
      ],
      "name": "voteCounts",
      "outputs": [
        {
          "internalType": "uint256",
          "name": "",
          "type": "uint256"
        }
      ],
      "stateMutability": "view",
      "type": "function"
    }
  ],
  "bytecode": "0x608060405234801561000f575f5ffd5b50604051610ced380380610ced83398181016040528101906100319190610114565b335f5f6101000a81548173ffffffffffffffffffffffffffffffffffffffff021916908373ffffffffffffffffffffffffffffffffffffffff1602179055508060015f6101000a81548173ffffffffffffffffffffffffffffffffffffffff021916908373ffffffffffffffffffffffffffffffffffffffff1602179055505061013f565b5f5ffd5b5f73ffffffffffffffffffffffffffffffffffffffff82169050919050565b5f6100e3826100ba565b9050919050565b6100f3816100d9565b81146100fd575f5ffd5b50565b5f8151905061010e816100ea565b92915050565b5f60208284031215610129576101286100b6565b5b5f61013684828501610100565b91505092915050565b610ba18061014c5f395ff3fe608060405234801561000f575f5ffd5b5060043610610060575f3560e01c80632b7ac3f3146100645780633c3a220d1461008257806377d6106a146100b2578063aad24061146100ce578063f851a440146100fe578063ff9810991461011c575b5f5ffd5b61006c61014c565b604051610079919061045f565b60405180910390f35b61009c600480360381019061009791906104b8565b610171565b6040516100a991906104f2565b60405180910390f35b6100cc60048036038101906100c791906106f7565b610186565b005b6100e860048036038101906100e391906104b8565b61038a565b6040516100f59190610777565b60405180910390f35b6101066103a7565b60405161011391906107b0565b60405180910390f35b610136600480360381019061013191906104b8565b6103cb565b60405161014391906104f2565b60405180910390f35b60015f9054906101000a900473ffffffffffffffffffffffffffffffffffffffff1681565b6003602052805f5260405f205f915090505481565b5f815f6002811061019a576101996107c9565b5b602002015190505f826001600281106101b6576101b56107c9565b5b6020020151905060025f8381526020019081526020015f205f9054906101000a900460ff161561021b576040517f08c379a000000000000000000000000000000000000000000000000000000000815260040161021290610850565b60405180910390fd5b60015f9054906101000a900473ffffffffffffffffffffffffffffffffffffffff1673ffffffffffffffffffffffffffffffffffffffff1663f5c9d69e878787876040518563ffffffff1660e01b815260040161027b9493929190610a09565b602060405180830381865afa158015610296573d5f5f3e3d5ffd5b505050506040513d601f19601f820116820180604052508101906102ba9190610a78565b6102f9576040517f08c379a00000000000000000000000000000000000000000000000000000000081526004016102f090610aed565b60405180910390fd5b600160025f8481526020019081526020015f205f6101000a81548160ff021916908315150217905550600160035f8381526020019081526020015f205f8282546103439190610b38565b92505081905550807fc31875ef3ed5138b71a0c1da7e494bc4d2ba4f567084ea481ec9c45f3a93948b8360405161037a91906104f2565b60405180910390a2505050505050565b6002602052805f5260405f205f915054906101000a900460ff1681565b5f5f9054906101000a900473ffffffffffffffffffffffffffffffffffffffff1681565b5f60035f8381526020019081526020015f20549050919050565b5f73ffffffffffffffffffffffffffffffffffffffff82169050919050565b5f819050919050565b5f61042761042261041d846103e5565b610404565b6103e5565b9050919050565b5f6104388261040d565b9050919050565b5f6104498261042e565b9050919050565b6104598161043f565b82525050565b5f6020820190506104725f830184610450565b92915050565b5f604051905090565b5f5ffd5b5f819050919050565b61049781610485565b81146104a1575f5ffd5b50565b5f813590506104b28161048e565b92915050565b5f602082840312156104cd576104cc610481565b5b5f6104da848285016104a4565b91505092915050565b6104ec81610485565b82525050565b5f6020820190506105055f8301846104e3565b92915050565b5f5ffd5b5f601f19601f8301169050919050565b7f4e487b71000000000000000000000000000000000000000000000000000000005f52604160045260245ffd5b6105558261050f565b810181811067ffffffffffffffff821117156105745761057361051f565b5b80604052505050565b5f610586610478565b9050610592828261054c565b919050565b5f67ffffffffffffffff8211156105b1576105b061051f565b5b602082029050919050565b5f5ffd5b5f6105d26105cd84610597565b61057d565b905080602084028301858111156105ec576105eb6105bc565b5b835b81811015610615578061060188826104a4565b8452602084019350506020810190506105ee565b5050509392505050565b5f82601f8301126106335761063261050b565b5b60026106408482856105c0565b91505092915050565b5f67ffffffffffffffff8211156106635761066261051f565b5b602082029050919050565b5f61068061067b84610649565b61057d565b9050806040840283018581111561069a576106996105bc565b5b835b818110156106c357806106af888261061f565b84526020840193505060408101905061069c565b5050509392505050565b5f82601f8301126106e1576106e061050b565b5b60026106ee84828561066e565b91505092915050565b5f5f5f5f61014085870312156107105761070f610481565b5b5f61071d8782880161061f565b945050604061072e878288016106cd565b93505060c061073f8782880161061f565b9250506101006107518782880161061f565b91505092959194509250565b5f8115159050919050565b6107718161075d565b82525050565b5f60208201905061078a5f830184610768565b92915050565b5f61079a826103e5565b9050919050565b6107aa81610790565b82525050565b5f6020820190506107c35f8301846107a1565b92915050565b7f4e487b71000000000000000000000000000000000000000000000000000000005f52603260045260245ffd5b5f82825260208201905092915050565b7f4c6f693a20437520747269206e617920646120626f20706869657521000000005f82015250565b5f61083a601c836107f6565b915061084582610806565b602082019050919050565b5f6020820190508181035f8301526108678161082e565b9050919050565b5f60029050919050565b5f81905092915050565b5f819050919050565b61089481610485565b82525050565b5f6108a5838361088b565b60208301905092915050565b5f602082019050919050565b6108c68161086e565b6108d08184610878565b92506108db82610882565b805f5b8381101561090b5781516108f2878261089a565b96506108fd836108b1565b9250506001810190506108de565b505050505050565b5f60029050919050565b5f81905092915050565b5f819050919050565b5f81905092915050565b6109438161086e565b61094d8184610930565b925061095882610882565b805f5b8381101561098857815161096f878261089a565b965061097a836108b1565b92505060018101905061095b565b505050505050565b5f61099b838361093a565b60408301905092915050565b5f602082019050919050565b6109bc81610913565b6109c6818461091d565b92506109d182610927565b805f5b83811015610a015781516109e88782610990565b96506109f3836109a7565b9250506001810190506109d4565b505050505050565b5f61014082019050610a1d5f8301876108bd565b610a2a60408301866109b3565b610a3760c08301856108bd565b610a456101008301846108bd565b95945050505050565b610a578161075d565b8114610a61575f5ffd5b50565b5f81519050610a7281610a4e565b92915050565b5f60208284031215610a8d57610a8c610481565b5b5f610a9a84828501610a64565b91505092915050565b7f4c6f693a205a4b2050726f6f66206b686f6e6720686f70206c650000000000005f82015250565b5f610ad7601a836107f6565b9150610ae282610aa3565b602082019050919050565b5f6020820190508181035f830152610b0481610acb565b9050919050565b7f4e487b71000000000000000000000000000000000000000000000000000000005f52601160045260245ffd5b5f610b4282610485565b9150610b4d83610485565b9250828201905080821115610b6557610b64610b0b565b5b9291505056fea26469706673582212209cc2543ff985d875e18137423694b4d62355cd3c99a0ed1808019c859f9ded5364736f6c634300081c0033",
  "linkReferences": {},
  "deployedLinkReferences": {},
  "immutableReferences": {},
  "inputSourceName": "project/contracts/Election.sol",
  "buildInfoId": "solc-0_8_28-82b6b281cd55f577339e59a6e6d59e8bd7219808"
}