{
  "_format": "hh3-artifact-1",
  "contractName": "Groth16Verifier",
  "sourceName": "contracts/Verifier.sol",
  "abi": [
    {
      "inputs": [
        {
          "internalType": "uint256[2]",
          "name": "_pA",
          "type": "uint256[2]"
        },
        {
          "internalType": "uint256[2][2]",
          "name": "_pB",
          "type": "uint256[2][2]"
        },
        {
          "internalType": "uint256[2]",
          "name": "_pC",
          "type": "uint256[2]"
        },
        {
          "internalType": "uint256[4]",
          "name": "_pubSignals",
          "type": "uint256[4]"
        }
      ],
      "name": "verifyProof",
      "outputs": [
        {
          "internalType": "bool",
          "name": "",
          "type": "bool"
        }
      ],
      "stateMutability": "view",
      "type": "function"
    }
  ],
  "bytecode": "0x6080604052348015600e575f5ffd5b506106f88061001c5f395ff3fe608060405234801561000f575f5ffd5b5060043610610029575f3560e01c80635fe8c13b1461002d575b5f5ffd5b61004760048036038101906100429190610629565b61005d565b60405161005491906106a9565b60405180910390f35b5f61056b565b7f30644e72e131a029b85045b68181585d2833e84879b9709143e1f593f00000018110610092575f5f5260205ff35b50565b5f60405183815284602082015285604082015260408160608360076107d05a03fa9150816100c5575f5f5260205ff35b825160408201526020830151606082015260408360808360066107d05a03fa9150816100f3575f5f5260205ff35b505050505050565b5f608086015f87017ee7abf56cce193832a40282640f544f9ee3972c98d38a08470523e3d44da6ba81527f2d0ad179931dc4913a46d115eebfc03757a649bbf61588dbf14e2aa24b87960c602082015261019a5f8801357f259535a2b05676764452b9ca3e3e36cd883dba1f179f8653ded0362528f1c9507f1e0de1bcdf7e2cfa908978c246e113a380574027023de6f81a1ba4f033e379b784610095565b6101ea60208801357f2f2a5ba1cf1a2c1f272aa536953babb11466c1865a5066114118a7e92382bde17f01f52324c540062d526899351187760acbfafe43617d6d0b897cfdc3189e94ba84610095565b61023a60408801357f137162f89e295cbaa5a08b64af2a6f32919932b66f00307165c947f28234f4287f165ba3df7c95ca7b95126b8d85d1ceae268c1c4bd206d67ea24202ba5bfff16184610095565b61028a60608801357f28de14c858e666df2190ecf30e0076ec18ee3031e89dd0b3df5b07f3ffebe4827f0f41710f4f20b0b9cd31e9fcf1a9637709924f197f949fd93c740c7718002c1684610095565b833582527f30644e72e131a029b85045b68181585d97816a916871ca8d3c208c16d87cfd4760208501357f30644e72e131a029b85045b68181585d97816a916871ca8d3c208c16d87cfd4703066020830152843560408301526020850135606083015260408501356080830152606085013560a08301527f21052a6135eab1a9198a8473a7d99c761e7614d60369043293490d52081ad9b760c08301527e3e4328d91960ae140801b92bd2cc0578aed79505648cd95f74cc5d619c6c5260e08301527f0755e2da5f56c3c05cee4f1a4df4598762645ba92079a7144643712b704c366f6101008301527f0b4f316d38ab409e5055a9fa5e38f4526aa28e66e8c08fc7d1e6ae96669a5a2c6101208301527f26c6cdce1c05fade77f6d05ed5eb514b426f28ca9f5f4df2f2430c32dbf9646f6101408301527f0be8c00022391f2ccc086627119b078f1ec5968b8c2d1feaabd704e3fd95af8f6101608301525f88015161018083015260205f018801516101a08301527f198e9393920d483a7260bfb731fb5d25f1aa493335a9e71297e485b7aef312c26101c08301527f1800deef121f1e76426a00665e5c4479674322d4f75edadd46debd5cd992f6ed6101e08301527f090689d0585ff075ec9e99ad690c3395bc4b313370b38ef355acdadcd122975b6102008301527f12c85ea5db8c6deb4aab71808dcb408fe3d1e7690c43d37b4ce6cc0166fa7daa610220830152853561024083015260208601356102608301527f07661143b4da65df416fce45e6a2770718ea5925626667a846f5157b555e8b3b6102808301527f1d6c50a25743442dc4c09b6a2731efb7c5987afd329aac9fa9af49dea9f1f6956102a08301527f230536d96eca98fd86796019259fafc6d95a90e89c1e2b30189604b6945bd35d6102c08301527f21c68b08a2d07689dca737a08eab9a7ee72ef93f732f090ea92ef3f24595f4ac6102e08301526020826103008460086107d05a03fa82518116935050505095945050505050565b60405161038081016040526105825f840135610063565b61058f6020840135610063565b61059c6040840135610063565b6105a96060840135610063565b6105b6818486888a6100fb565b805f5260205ff35b5f5ffd5b5f5ffd5b5f819050826020600202820111156105e1576105e06105c2565b5b92915050565b5f81905082604060020282011115610602576106016105c2565b5b92915050565b5f81905082602060040282011115610623576106226105c2565b5b92915050565b5f5f5f5f6101808587031215610642576106416105be565b5b5f61064f878288016105c6565b9450506040610660878288016105e7565b93505060c0610671878288016105c6565b92505061010061068387828801610608565b91505092959194509250565b5f8115159050919050565b6106a38161068f565b82525050565b5f6020820190506106bc5f83018461069a565b9291505056fea264697066735822122004422b8a9756e277e075625f02ec50414c941b0ea2357f648900f098b28912cb64736f6c634300081c0033",
  "linkReferences": {},
  "deployedLinkReferences": {},
  "immutableReferences": {},
  "inputSourceName": "project/contracts/Verifier.sol",
  "buildInfoId": "solc-0_8_28-801b88c0626c524f2dd57ec78d79445c92b3394b"
}